{
  "contractName": "Project2",
  "abi": [
    {
      "inputs": [
        {
          "internalType": "string",
          "name": "st",
          "type": "string"
        }
      ],
      "name": "setLang",
      "outputs": [
        {
          "internalType": "string",
          "name": "p",
          "type": "string"
        }
      ],
      "stateMutability": "nonpayable",
      "type": "function"
    },
    {
      "inputs": [],
      "name": "showLang",
      "outputs": [
        {
          "internalType": "string",
          "name": "Language",
          "type": "string"
        },
        {
          "internalType": "uint256",
          "name": "Letters",
          "type": "uint256"
        }
      ],
      "stateMutability": "view",
      "type": "function",
      "constant": true
    },
    {
      "inputs": [
        {
          "internalType": "uint256",
          "name": "lt",
          "type": "uint256"
        }
      ],
      "name": "addLin",
      "outputs": [],
      "stateMutability": "nonpayable",
      "type": "function"
    }
  ],
  "bytecode": "0x608060405234801561001057600080fd5b506105c2806100206000396000f3fe608060405234801561001057600080fd5b50600436106100415760003560e01c8063a2f01a0114610046578063b2a2aabe1461005b578063f2eefe2114610084575b600080fd5b610059610054366004610245565b600155565b005b61006e610069366004610274565b61009a565b60405161007b9190610375565b60405180910390f35b61008c6101a9565b60405161007b92919061038f565b606060006040516020016100ae91906103eb565b60405160208183030381529060405280519060200120826040516020016100d59190610461565b60405160208183030381529060405280519060200120036101625760405162461bcd60e51b815260206004820152603860248201527f4e6577206c616e67756167652063616e6e6f74206265207468652073616d652060448201527f6173207468652063757272656e74206c616e67756167652e0000000000000000606482015260840160405180910390fd5b600061016e83826104cc565b505060408051808201909152601881527f596f7572204c616e6775616765206973207570646174656400000000000000006020820152919050565b60606000806001548180546101bd906103b1565b80601f01602080910402602001604051908101604052809291908181526020018280546101e9906103b1565b80156102365780601f1061020b57610100808354040283529160200191610236565b820191906000526020600020905b81548152906001019060200180831161021957829003601f168201915b50505050509150915091509091565b60006020828403121561025757600080fd5b5035919050565b634e487b7160e01b600052604160045260246000fd5b60006020828403121561028657600080fd5b813567ffffffffffffffff8082111561029e57600080fd5b818401915084601f8301126102b257600080fd5b8135818111156102c4576102c461025e565b604051601f8201601f19908116603f011681019083821181831017156102ec576102ec61025e565b8160405282815287602084870101111561030557600080fd5b826020860160208301376000928101602001929092525095945050505050565b60005b83811015610340578181015183820152602001610328565b50506000910152565b60008151808452610361816020860160208601610325565b601f01601f19169290920160200192915050565b6020815260006103886020830184610349565b9392505050565b6040815260006103a26040830185610349565b90508260208301529392505050565b600181811c908216806103c557607f821691505b6020821081036103e557634e487b7160e01b600052602260045260246000fd5b50919050565b60008083546103f9816103b1565b60018281168015610411576001811461042657610455565b60ff1984168752821515830287019450610455565b8760005260208060002060005b8581101561044c5781548a820152908401908201610433565b50505082870194505b50929695505050505050565b60008251610473818460208701610325565b9190910192915050565b601f8211156104c757600081815260208120601f850160051c810160208610156104a45750805b601f850160051c820191505b818110156104c3578281556001016104b0565b5050505b505050565b815167ffffffffffffffff8111156104e6576104e661025e565b6104fa816104f484546103b1565b8461047d565b602080601f83116001811461052f57600084156105175750858301515b600019600386901b1c1916600185901b1785556104c3565b600085815260208120601f198616915b8281101561055e5788860151825594840194600190910190840161053f565b508582101561057c5787850151600019600388901b60f8161c191681555b5050505050600190811b0190555056fea26469706673582212204a68e6da76681c5f75c3f52e754948a29dc6eee38dbf6884f8acbf9dda3915af64736f6c63430008130033",
  "immutableReferences": {},
  "source": "// SPDX-License-Identifier: MIT\r\n\r\npragma solidity >=0.7.0 <0.9.0;\r\n\r\ncontract Project2 {\r\n    string language;\r\n    uint letters;\r\n\r\n//this function will initiate the language variable and check if it is same as before \r\n    function setLang(string memory st) external returns(string memory p) {\r\n        require(keccak256(abi.encodePacked(st)) != keccak256(abi.encodePacked(language)), \"New language cannot be the same as the current language.\");\r\n        language = st;\r\n        p=\"Your Language is updated\";\r\n        return p;\r\n    }\r\n\r\n//it will show the final language and letters on the screen\r\n    function showLang() view external returns(string memory Language, uint Letters){\r\n        return (language , letters);\r\n    }\r\n\r\n//this is to initiate the letters variable\r\n    function addLin(uint256 lt) external {\r\n        letters = lt;\r\n    }\r\n}",
  "sourcePath": "C:\\Users\\shubh\\OneDrive\\Desktop\\PR 2\\contracts\\Project2.sol",
  "compiler": {
    "name": "solc",
    "version": "0.8.19+commit.7dd6d404.Emscripten.clang"
  },
  "schemaVersion": "3.4.16",
  "updatedAt": "2024-07-01T12:56:42.050Z",
  "networkType": "ethereum",
  "devdoc": {
    "kind": "dev",
    "methods": {},
    "version": 1
  },
  "userdoc": {
    "kind": "user",
    "methods": {},
    "version": 1
  }
}